:1000000045C3000072C3000070C300006EC300004F
:100010006CC300006AC3000068C3000066C3000030
:1000200064C3000062C3000060C300005EC3000040
:100030005CC300005AC3000058C3000056C3000050
:100040000C94B90E52C3000050C300004EC3000010
:100050004CC300004AC3000048C3000046C3000070
:1000600044C3000042C3000040C300003EC3000080
:100070003CC300003AC3000038C3000036C3000090
:1000800034C3000032C3000030C300006E616E0054
:10009000696E660000000000003E5B4F5B3E3E6BF9
:1000A0004F6B3E1C3E7C3E1C183C7E3C181C577D12
:1000B000571C1C5E7F5E1C00183C1800FFE7C3E75E
:1000C000FF0018241800FFE7DBE7FF30483A060E70
:1000D0002629792926407F050507407F05253F5AB7
:1000E0003CE73C5A7F3E1C1C08081C1C3E7F142227
:1000F0007F22145F5F005F5F06097F017F006689D2
:10010000956A606060606094A2FFA29408047E0417
:100110000810207E201008082A1C08081C2A08083D
:100120001E101010100C1E0C1E0C30383E383006FD
:100130000E3E0E06000000000000005F00000007F9
:10014000000700147F147F14242A7F2A1223130827
:10015000646236495620500008070300001C224103
:10016000000041221C002A1C7F1C2A08083E0808A7
:100170000080703000080808080800006060002057
:10018000100804023E5149453E00427F400072493A
:100190004949462141494D331814127F10274545DE
:1001A00045393C4A494931412111090736494949F4
:1001B00036464949291E0000140000004034000062
:1001C00000081422411414141414004122140802CB
:1001D000015909063E415D594E7C1211127C7F493E
:1001E0004949363E414141227F4141413E7F494993
:1001F00049417F090909013E414151737F080808BF
:100200007F00417F41002040413F017F081422418F
:100210007F404040407F021C027F7F0408107F3EE9
:100220004141413E7F090909063E4151215E7F0956
:10023000192946264949493203017F01033F4040BD
:10024000403F1F2040201F3F4038403F63140814A8
:100250006303047804036159494D43007F414141E0
:100260000204081020004141417F040201020440C1
:1002700040404040000307080020545478407F2845
:100280004444383844444428384444287F3854543B
:10029000541800087E090218A4A49C787F0804045E
:1002A0007800447D40002040403D007F10284400FD
:1002B00000417F40007C047804787C08040478388E
:1002C00044444438FC1824241818242418FC7C08BE
:1002D000040408485454542404043F44243C40403B
:1002E000207C1C2040201C3C4030403C44281028EE
:1002F000444C9090907C4464544C44000836410037
:100300000000770000004136080002010204023CB0
:100310002623263C1EA1A161123A4040207A38547F
:1003200054555921555579412254547842215554F8
:10033000784020545579400C1E527212395555554B
:1003400059395454545939555454580000457C4136
:100350000002457D420001457C407D1211127DF076
:10036000282528F07C545545002054547C547C0AA0
:10037000097F4932494949323A4444443A324A4869
:1003800048303A4141217A3A42402078009DA0A06D
:100390007D3D4242423D3D4040403D3C24FF2424BF
:1003A000487E4943662B2FFC2F2BFF0929F620C0DE
:1003B000887E090320545479410000447D4130482F
:1003C000484A32384040227A007A0A0A727D0D1972
:1003D000317D2629292F28262929292630484D40D4
:1003E00020380808080808080808382F10C8ACBAD0
:1003F0002F102834FA00007B000008142A1422224F
:10040000142A1408AA005500AAAA55AA55AA000041
:1004100000FF00101010FF00141414FF001010FF54
:1004200000FF1010F010F0141414FC001414F70066
:10043000FF0000FF00FF1414F404FC141417101F35
:1004400010101F101F1414141F00101010F00000C3
:1004500000001F101010101F10101010F0100000DE
:1004600000FF101010101010101010FF10000000EE
:10047000FF140000FF00FF00001F10170000FC0425
:10048000F414141710171414F404F40000FF00F708
:1004900014141414141414F700F71414141714106B
:1004A000101F101F141414F4141010F010F000009A
:1004B0001F101F0000001F14000000FC140000F0BB
:1004C00010F01010FF10FF141414FF141010101F60
:1004D00000000000F010FFFFFFFFFFF0F0F0F0F071
:1004E000FFFFFF0000000000FFFF0F0F0F0F0F388E
:1004F00044443844FC4A4A4A347E02020606027EDC
:10050000027E0263554941633844443C04407E20E6
:100510001E2006027E020299A5E7A5991C2A492AF7
:100520001C4C7201724C304A4D4D30304878483086
:10053000BC625A463D3E494949007E0101017E2A7E
:100540002A2A2A2A44445F444440514A44404044B1
:100550004A51400000FF0103E080FF000008086BE3
:100560006B083612362436060F090F0600001818DD
:100570000000001010003040FF0101001F01011EAB
:1005800000191D1712003C3C3C3C0000000000001C
:10059000407A10F35A00A0724E18090010A5D4E852
:1005A0000000E87648170000E40B54020000CA9AE5
:1005B0003B000000E1F50500008096980000004037
:1005C000420F000000A0860100000010270000007C
:1005D00000E803000000006400000000000A0000C2
:1005E0000000000100000000002C76D888DC674F76
:1005F0000823DFC1DFAE59E1B1B796E5E3E453C6A6
:100600003AE651997696E8E6C28426EB898C9B629D
:10061000ED407C6FFCEFBC9C9F40F2BAA56FA5F447
:1006200090055A2AF75C936B6CF9676DC11BFCE06F
:10063000E40D47FEF520E6B500D0ED902E030094C2
:100640003577050080841E080000204E0A00000057
:10065000C80C333333330F986E12831141EF8D2161
:1006600014893BE65516CFFEE6DB18D1844B381BC8
:10067000F77C1D901DA4BBE424203284725E22818D
:1006800000C9F124ECA1E53D2700F70F11241FBE9E
:10069000CFEFD0E1DEBFCDBF11E0A0E0B1E0E0EBF5
:1006A000F4E200E00BBF02C007900D92A236B10742
:1006B000D9F721E0A2E6B1E001C01D92AC3AB20741
:1006C000E1F716E0CCE8D6E000E006C02297010989
:1006D000FE010BBF0E949610CA38D10780E00807C0
:1006E000A9F70E94E20E0C9456128ACC2F923F92E8
:1006F0004F925F926F927F928F929F92AF92BF9232
:10070000CF92DF92EF92FF920F931F93CF93DF93DD
:10071000CDB7DEB763970FB6F894DEBF0FBECDBF7F
:100720007C011B016A01FC0117821682838181FF13
:1007300066C3BE016F5F7F4F4B01F7019381F101EB
:1007400093FD859193FF81911F01882309F453C381
:10075000853239F493FD859193FF81911F01853294
:1007600039F4B70190E00E94971156016501E5CF79
:1007700010E0512C20E02032A0F48B3269F030F4EC
:10078000803259F0833269F420612CC08D3239F007
:10079000803339F4216026C02260246023C02860A1
:1007A00021C027FD27C030ED380F3A3078F426FFFE
:1007B00006C0FAE01F9F300D1124132F13C06AE00A
:1007C000569E300D1124532E20620CC08E3221F41F
:1007D00026FD11C3206406C08C3611F4206802C0C7
:1007E000883641F4F10193FD859193FF81911F01BA
:1007F0008111C1CF9BEB980F933018F42061805E7C
:1008000006C09BE9980F933008F0AAC12F7E26FFFF
:1008100016E02F73722E853621F4F22FF0647F2EAE
:1008200008C0863621F4622F6068762E02C011114E
:10083000115077FE07C01C3348F444244394410E02
:1008400027E00BC0183030F4212F06C027E04CE31E
:10085000442E03C027E017E0412C560174E0A70E98
:10086000B11CF6016081718182819381042DA40104
:100870000E94A9106C01098100FF02C003FF06C09D
:1008800071FC07C072FC08C0612C08C03DE2632EF9
:1008900005C02BE2622E02C090E2692E802F8C7080
:1008A00099F1662011F084E001C083E0851510F015
:1008B000512C0BC0581A73FC08C0B70180E290E0BD
:1008C0000E9497115A94C9F7F3CF662029F0B70117
:1008D000862D90E00E94971103FD03C000E910E00F
:1008E00002C00CE810E0F72DF0717F2EF801849122
:1008F000882309F476C271108052B70190E00E94FB
:1009000097110F5F1F4FF2CF77FE0FC04C0C04FF03
:1009100004C08A81813309F44A94141474F5F8E010
:10092000F41578F588E0482E2CC076FC2AC0812F7B
:1009300090E08C159D059CF06CEFC6166FEFD60607
:1009400074F0772D7068772E0AC0E2E0F0E0EC0FCB
:10095000FD1FE10FF11D8081803319F41150111139
:10096000F4CF77FE0EC044244394410E812F90E0D3
:10097000C816D9062CF41C1904C04424439401C0A1
:1009800010E077FE07C01C141D043CF496012F5F95
:100990003F4F05C025E030E002C021E030E0662096
:1009A00011F02F5F3F4F112331F0412F50E04F5F87
:1009B0005F4F240F351F452D50E02417350714F4E1
:1009C000521A01C0512C872D897049F4552039F0F5
:1009D000B70180E290E00E9497115A94F7CF662009
:1009E00029F0B701862D90E00E94971173FC09C091
:1009F000552039F0B70180E390E00E9497115A9496
:100A0000F7CF77FE5FC09C2D8D2DD7FE02C090E002
:100A100080E0692E782E40E050E0C60184199109EB
:100A20009D878C87960126193709280D391D812F3E
:100A300090E0EE27FF27E81BF90BFF87EE87FFEF1B
:100A40006F167F0669F4B7018EE290E02B8B3A8B2C
:100A5000488B598B0E949711598948893A892B896B
:100A6000C614D70454F06C857D85661577052CF483
:100A7000F901E40FF51F818101C080E371E0671A7D
:100A800071084F5F5F4FEE85FF856E167F066CF035
:100A9000B70190E02B8B3A8B488B598B0E949711B2
:100AA0002B893A8948895989CACF6C147D0439F455
:100AB0009A81963318F4953311F404FF81E3B7015A
:100AC00090E04BC08A81813309F00F7EB70190E03E
:100AD0000E949711111105C074FE18C085E490E0C2
:100AE00017C0B7018EE290E00E94971182E0662461
:100AF0006394680EF401E80FF11D8081B70190E066
:100B00000E949711115041F3862DF1CF85E690E0B8
:100B1000B7010E949711D7FC05C0C114D10439F464
:100B200004FF05C0D194C194D1088DE201C08BE2CD
:100B3000B70190E00E94971180E36AE0C616D104E5
:100B40002CF08F5FFAE0CF1AD108F7CFB70190E011
:100B50000E949711B701C601C0960E94971141C12A
:100B6000833631F0833779F0833509F058C021C0DE
:100B7000560172E0A70EB11CF6018081898301E065
:100B800010E0640114C05601F2E0AF0EB11CF60192
:100B9000C080D18026FF03C0612F70E002C06FEFDC
:100BA0007FEFC6012B8B0E948C118C012B892F7734
:100BB00015C05601F2E0AF0EB11CF601C080D18025
:100BC00026FF03C0612F70E002C06FEF7FEFC60108
:100BD0002B8B0E9481118C012B892068722E23FDA2
:100BE0001AC0852D90E008171907A8F4B70180E214
:100BF00090E00E9497115A94F4CFF60177FC85910A
:100C000077FE81916F01B70190E00E94971151101A
:100C10005A94015011090115110579F7E2C0843683
:100C200011F0893651F5560127FF09C0F4E0AF0EE7
:100C3000B11CF60160817181828193810AC0F2E06A
:100C4000AF0EB11CF60160817181882777FD809518
:100C5000982F022F0F7697FF08C09095809570957A
:100C600061957F4F8F4F9F4F00682AE030E0A401CD
:100C70000E94F811C82EC8183EC0022F853721F4F3
:100C80000F7E2AE030E01DC0097F8F3691F018F406
:100C9000883559F0B0C0803719F0883711F0ABC0F3
:100CA000006104FF09C0046007C024FF08C006609B
:100CB00006C028E030E005C020E130E002C020E1BD
:100CC00032E0560107FF09C0F4E0AF0EB11CF60197
:100CD000608171818281938108C0F2E0AF0EB11C06
:100CE000F6016081718180E090E0A4010E94F8111A
:100CF000C82EC8180F7706FF0BC0202F2E7FC116F5
:100D000050F404FF0AC002FD08C0202F2E7E05C04B
:100D1000DC2C202F03C0DC2C01C0D12E24FF0DC001
:100D2000FE01EC0DF11D8081803311F4297E09C094
:100D300022FF06C0D394D39404C0822F867809F092
:100D4000D39423FD13C020FF06C01C2DD51418F426
:100D5000150D1D19D52CD51468F4B70180E290E06B
:100D60002B8B0E949711D3942B89F5CFD51410F4B7
:100D70005D1801C0512C24FF12C0B70180E390E040
:100D80002B8B0E9497112B8922FF17C021FF03C0D4
:100D900088E590E002C088E790E0B7010CC0822FA0
:100DA000867859F021FD02C080E201C08BE227FD68
:100DB0008DE2B70190E00E949711C11638F4B70197
:100DC00080E390E00E9497111150F7CFCA94F4018C
:100DD000EC0DF11D8081B70190E00E949711C110C8
:100DE000F5CF552009F4C2CCB70180E290E00E9413
:100DF00097115A94F6CFF7018681978102C08FEF41
:100E00009FEF63960FB6F894DEBF0FBECDBFDF91A4
:100E1000CF911F910F91FF90EF90DF90CF90BF90F7
:100E2000AF909F908F907F906F905F904F903F908A
:100E30002F900895AF92CF92EF92FF920F931F934E
:100E4000CF93DF93EC01798368835B834A833D838F
:100E50002C831F830E83F986E886DB01ED91FC91DC
:100E60001197829112969C91892B8083AA81BB81D4
:100E7000ED91FC911197829112969C91892B808320
:100E8000AC81BD81ED91FC911197829112969C915C
:100E9000892B8083AE81BF81ED91FC911197829166
:100EA00013969C9189238083A885B985ED91FC9147
:100EB0001197829112969C91892B808361E08A819F
:100EC0009B8135D761E08881998131D761E08C8140
:100ED0009D812DD761E08881998129D7CA86AB860B
:100EE000DF91CF911F910F91FF90EF90CF90AF9036
:100EF0000895CF93DF93EC01A885B985ED91FC911E
:100F00001197829113969C91892380838885998576
:100F10001ED7A885B985ED91FC91119792911296F3
:100F20002C91922B908391E08927DF91CF910895A6
:100F30000F931F93CF93DF93EC01162F60E088810E
:100F40009981F5D608E0612F661F6627661F8C81A0
:100F50009D81EDD6110F60E088819981E8D661E02E
:100F600088819981E4D6015071F7DF91CF911F916B
:100F70000F910895FF920F931F93CF93DF938C01EE
:100F80009CE0F92EC0E0D0E0CC0FDD1F61E0F8015D
:100F900080819181CCD660E0F80180819181C7D6B3
:100FA000F80186819781D3D681112196FA9461F751
:100FB000CE01DF91CF911F910F91FF9008952F9255
:100FC0003F924F925F926F927F928F929F92AF92D9
:100FD000BF92CF92DF92EF92FF920F931F93CF9326
:100FE000DF93EC018B011A0160E08A819B819FD61F
:100FF000612C712CC12CD12C7601812C912C5401A7
:101000004A84842D90E06816790634F560E9CE01B3
:101010008FDF61E0888199818AD660E0888199813B
:1010200086D6CE01A7DF880E991EA11CB11C60EDEB
:10103000CE017EDF61E08881998179D660E0888188
:10104000998175D6CE0196DFC80ED91EE11CF11C20
:101050008FEF681A780AD4CF512C612C712CC501FE
:10106000B401A30192010E946A1049015A01E8ECFF
:101070008E1A9108A108B108F8E58F16FDE09F06C9
:10108000A104B104A8F4C701B601A30192010E9412
:101090006A1069017A0188E6C81A81E0D80AE10875
:1010A000F108E1E7CE16EDE0DE06E104F10410F010
:1010B00080E031C0A0E4B1E0A50194010E948C1051
:1010C00027E53DE040E050E00E946A1049015A01E6
:1010D000A0EFB0E0A70196010E948C1020E73DE050
:1010E00040E050E0F7D78B8581110BC080EF90E096
:1010F000821B930BF80191838083F101918280829E
:1011000006C0F80191828082F1013183208361E081
:101110008A819B810CD6DF91CF911F910F91FF9017
:10112000EF90DF90CF90BF90AF909F908F907F9087
:101130006F905F904F903F902F900895FC017187C2
:10114000608753874287FFEF29EF80E0F15020400E
:101150008040E1F700C0000080B7886080BF83B79F
:10116000856083BF87B7816087BF78940895CF93E8
:10117000DF93EC01688179818A819B816F5F7F4F6A
:101180008F4F9F4F688379838A839B836115710595
:1011900081059105D1F02CE330E040E050E09AD792
:1011A000672B682B692B89F44C815D816E817F816F
:1011B0004F5F5F4F6F4F7F4F4C835D836E837F83A5
:1011C000EA85FB85309709F00995E885F985309720
:1011D00019F0DF91CF910994DF91CF910895FC012F
:1011E00060817181828193812CE330E040E050E0A6
:1011F00071D7862F0895CF92DF92EF92FF92FC0174
:1012000060817181828193812CE3C22ED12CE12CEB
:10121000F12CA70196015ED7CA01B901A701960179
:1012200059D7862FFF90EF90DF90CF90089585EBF0
:1012300088BB87EC87BB80E58DB9709A08958FB91C
:10124000779BFECF08951F93CF93DF93EC01162F6A
:1012500060E08C819D816BD560E08881998167D544
:10126000812FEDDF61E08881998161D561E08C811A
:101270009D81DF91CF911F915AC5CF92DF92FF924E
:101280000F931F93CF93DF9300D000D01F92CDB761
:10129000DEB76C01F62E6AE22B833A834D835C83C2
:1012A0007983D1DF60E0F6018481958140D5798131
:1012B000872FC5DF8F2DC3DF61E0F6018481958123
:1012C00036D560E0F6018481958131D53A81832F4E
:1012D000B6DF2B81822FB3DF61E0F6018481958137
:1012E00026D56BE2C601AFDF60E0F601848195810F
:1012F0001ED55C81852FA3DF4D81842FA0DF61E0A7
:10130000F6018481958113D560E0F6018481958191
:101310000ED5812F94DF802F92DF61E0F60184816A
:10132000958105D56CE2C6010F900F900F900F903C
:101330000F90DF91CF911F910F91FF90DF90CF9091
:1013400082CFCF93DF93EC0161E08A819B81EFD460
:101350002FEF89EF90E0215080409040E1F700C0EE
:10136000000060E08A819B81E2D42FEF89EF90E05A
:10137000215080409040E1F700C0000061E08A8188
:101380009B81D5D42FEF89EF90E021508040904091
:10139000E1F700C00000DF91CF910895CF93DF9374
:1013A000EC01CA01798368835B834A833D832C8384
:1013B00061E0BDD480E491E09F838E8380EF90E074
:1013C0009987888734DFCE01BCDF61E0CE013BDF47
:1013D0008FE39CE90197F1F700C000006BECCE01B0
:1013E00032DF60E08C819D81A2D489E328DF61E057
:1013F0008C819D819CD460E08C819D8198D48CE20D
:101400001EDF61E08C819D8192D460E08C819D81A2
:101410008ED480E014DF61E08C819D8188D460E00F
:101420008C819D8184D484E30ADF61E08C819D817D
:101430007ED460E08C819D817AD482E000DF61E01F
:101440008C819D8174D46FECCE01FDDE60E08C81D7
:101450009D816DD480E0F3DE61E08C819D8167D455
:1014600060E08C819D8163D481ECE9DE61E08C8158
:101470009D815DD460E08C819D8159D480E3DFDE65
:1014800061E08C819D8153D468EECE01DCDE60E0AA
:101490008C819D814CD485E8D2DE61E08C819D8178
:1014A00046D460E08C819D8142D480E0C8DE61E05A
:1014B0008C819D813CD460E08C819D8138D488E70B
:1014C000BEDE61E08C819D8132D46AEECE01BBDE4E
:1014D00060E08C819D812BD480E0B1DE61E08C8165
:1014E0009D8125D460E08C819D8121D480E0A7DEA0
:1014F00061E08C819D811BD46DEECE01A4DE60E0A5
:101500008C819D8114D484E69ADE61E08C819D817A
:101510000ED460E08C819D810AD483E090DE61E08E
:101520008C819D8104D460E08C819D8100D482E116
:1015300086DE61E08C819D81FAD360E08C819D81A3
:10154000F6D381E87CDE61E08C819D81F0D367EF8A
:10155000CE0179DE60E08C819D81E9D380E26FDE8F
:1015600061E08C819D81E3D360ECCE016CDE60E0B4
:101570008C819D81DCD383E262DE61E08C819D8180
:10158000D6D361ECCE015FDE60E08C819D81CFD34C
:1015900080E155DE61E08C819D81C9D365ECCE018F
:1015A00052DE60E08C819D81C2D38EE348DE61E033
:1015B0008C819D81BCD360E08C819D81B8D388E211
:1015C0003EDE61E08C819D81B2D367ECCE013BDED3
:1015D00060E08C819D81ABD386E831DE61E08C8157
:1015E0009D81A5D366E3CE012EDE60E08C819D81D6
:1015F0009ED388E424DE61E08C819D8198D36AE3E8
:10160000CE0121DE60E08C819D8191D385E517DEDE
:1016100061E08C819D818BD361EBCE0114DE60E0B3
:101620008C819D8184D380E00ADE61E08C819D8184
:101630007ED360E08C819D817AD388E100DE61E019
:101640008C819D8174D366EBCE01FDDD60E08C81E1
:101650009D816DD388E0F3DD61E08C819D8167D34E
:1016600060E08C819D8163D382E8E9DD61E08C815B
:101670009D815DD360E08C819D8159D387E2DFDD60
:1016800061E08C819D8153D362EFCE01DCDD60E0AF
:101690008C819D814CD380E0D2DD61E08C819D8185
:1016A00046D366E2CE01CFDD60E08C819D813FD3E1
:1016B00081E0C5DD61E08C819D8139D360EECE0192
:1016C000C2DD60E08C819D8132D38FE0B8DD61E0C6
:1016D0008C819D812CD360E08C819D8128D381E316
:1016E000AEDD61E08C819D8122D360E08C819D81A3
:1016F0001ED38BE2A4DD61E08C819D8118D360E074
:101700008C819D8114D38CE09ADD61E08C819D8178
:101710000ED360E08C819D810AD38EE090DD61E084
:101720008C819D8104D360E08C819D8100D388E011
:1017300086DD61E08C819D81FAD260E08C819D81A3
:10174000F6D28EE47CDD61E08C819D81F0D260E098
:101750008C819D81ECD281EF72DD61E08C819D8175
:10176000E6D260E08C819D81E2D287E368DD61E0B2
:101770008C819D81DCD260E08C819D81D8D287E014
:101780005EDD61E08C819D81D2D260E08C819D81A3
:10179000CED280E154DD61E08C819D81C8D260E0D1
:1017A0008C819D81C4D283E04ADD61E08C819D8182
:1017B000BED260E08C819D81BAD28EE040DD61E0D6
:1017C0008C819D81B4D260E08C819D81B0D289E012
:1017D00036DD61E08C819D81AAD260E08C819D81A3
:1017E000A6D280E02CDD61E08C819D81A0D261EEEB
:1017F000CE0129DD60E08C819D8199D280E01FDDE2
:1018000061E08C819D8193D260E08C819D818FD23B
:101810008EE015DD61E08C819D8189D260E08C8154
:101820009D8185D284E10BDD61E08C819D817FD239
:1018300060E08C819D817BD283E001DD61E08C8161
:101840009D8175D260E08C819D8171D281E1F7DC50
:1018500061E08C819D816BD260E08C819D8167D23B
:1018600087E0EDDC61E08C819D8161D260E08C815C
:101870009D815DD281E3E3DC61E08C819D8157D263
:1018800060E08C819D8153D281ECD9DC61E08C8158
:101890009D814DD260E08C819D8149D288E4CFDC6E
:1018A00061E08C819D8143D260E08C819D813FD23B
:1018B00088E0C5DC61E08C819D8139D260E08C815B
:1018C0009D8135D28FE0BBDC61E08C819D812FD280
:1018D00060E08C819D812BD28CE0B1DC61E08C8159
:1018E0009D8125D260E08C819D8121D281E3A7DC9E
:1018F00061E08C819D811BD260E08C819D8117D23B
:1019000086E39DDC61E08C819D8111D260E08C8159
:101910009D810DD28FE093DC61E08C819D8107D2A7
:1019200061E1CE0190DC9FEF2BED85E091502040EE
:101930008040E1F700C0000069E2CE01DF91CF9165
:1019400082CCEF92FF920F931F93CF93DF93EC0122
:10195000F22EE32EEE81FF816E177F07F0F4E8850B
:10196000F9854E175F07C8F48A010F5F1F4F9B016F
:101970002F5F3F4F82DC60E08C819D81D8D18E2D1E
:101980005EDC8F2D5CDC61E08C819D81DF91CF91ED
:101990001F910F91FF90EF90CAC1DF91CF911F91DE
:1019A0000F91FF90EF900895AF92BF92CF92DF9288
:1019B000EF92FF920F931F93CF93DF93EC01690196
:1019C00058012E813F816217730708F041C0888556
:1019D00099854817590708F03BC0F6013197E60F83
:1019E000F71FE217F30718F06901C61AD70A950125
:1019F00021503109240F351F2817390718F05C01D1
:101A0000A41AB50A8A01015011090A0D1B1D9B0178
:101A1000215031092C0D3D1DCE012FDCA114B10444
:101A2000B9F086010115110579F060E08C819D8186
:101A30007ED18F2D04DC8E2D02DC61E08C819D81B6
:101A400076D101501109EECF81E0A81AB108E6CF96
:101A5000DF91CF911F910F91FF90EF90DF90CF908A
:101A6000BF90AF900895EF92FF920F931F93213094
:101A700031F498011F910F91FF90EF9062CF30E009
:101A80007801890191DF1F910F91FF90EF900895E8
:101A9000EF92FF920F931F93FC0100851185268121
:101AA00037817B0140E050E060E070E07DDF1F9116
:101AB0000F91FF90EF9008951F93CF93DF93EC0168
:101AC000162F66E3C0DB113089F050F01230A1F020
:101AD000133081F560E08C819D8129D188EE1DC095
:101AE00060E08C819D8123D188E40BC060E08C8113
:101AF0009D811DD188E211C060E08C819D8117D14C
:101B000088E89DDB61E08C819D8111D180EF90E0C0
:101B10009F838E8380E491E00BC091DB61E08C8138
:101B20009D8105D180E491E09F838E8380EF90E0DA
:101B300099878887DF91CF911F9108952F923F92C7
:101B40004F925F926F927F928F929F92AF92BF92CD
:101B5000CF92DF92EF92FF920F931F93CF93DF9379
:101B6000CDB7DEB729970FB6F894DEBF0FBECDBF55
:101B70009A838983742E652E502EFC82EB82DE823E
:101B8000CD8285E0289F10011124A02EB12C6887FA
:101B90007987812C912CF101EC56FF4F1F01F5E064
:101BA0008F1629F0F101E80DF91D449001C0412C78
:101BB000E72CF62CC72CD62C38E040FE08C08B81D1
:101BC0009C81009791F08C01252DA60107C0ED8125
:101BD000FE81309751F08F01252DA7016885798509
:101BE00089819A813F833FDF3F8146943150CA0CFF
:101BF000DB1CEA0CFB1C3111E0CFFFEF8F1A9F0AB0
:101C0000888599858A0D9B1D9987888796E0891616
:101C1000910429F629960FB6F894DEBF0FBECDBF0A
:101C2000DF91CF911F910F91FF90EF90DF90CF90B8
:101C3000BF90AF909F908F907F906F905F904F90EC
:101C40003F902F9008952F923F924F925F926F9204
:101C50007F928F929F92AF92BF92CF92DF92EF923C
:101C6000FF920F931F93CF93DF93CDB7DEB72897E3
:101C70000FB6F894DEBF0FBECDBF4C0178876F83DF
:101C80005A01102F2701360144EF4003C0011124EF
:101C90009A838983E6E00E9FC00111249C838B8385
:101CA000E8E00E9FC00111249E838D831901F1018C
:101CB00021911F01222311F163017201012FA5015E
:101CC0006F817885C4013ADFF4018681978129818B
:101CD0003A81820F931FEF81F8858E179F0738F0A6
:101CE0002B813C81E20FF31FF887EF83E0CF8D81DA
:101CF0009E81A80EB91E18861F82D9CF28960FB6CE
:101D0000F894DEBF0FBECDBFDF91CF911F910F9131
:101D1000FF90EF90DF90CF90BF90AF909F908F900B
:101D20007F906F905F904F903F902F900895DC01CF
:101D3000ED91FC9111978081662321F012969C9180
:101D4000892B03C013969C91892380830895DC011D
:101D5000ED91FC9111973297208112968C91282356
:101D600081E009F480E00895089581E080933401D2
:101D700008951F920F920FB60F9211240BB60F9277
:101D80002F933F934F935F936F937F938F939F9383
:101D9000AF93BF93EF93FF9380EA91E0E8D9FF916F
:101DA000EF91BF91AF919F918F917F916F915F91D3
:101DB0004F913F912F910F900BBE0F900FBE0F9040
:101DC0001F901895CF93DF93CDB7DEB7C350D140A6
:101DD0000FB6F894DEBF0FBECDBF44EB5EE065EBFF
:101DE0007EE080EA91E0AAD9789424E931E048E9DC
:101DF00051E06CE971E08EE691E0D0DA60E08EE6C9
:101E000091E05ADEA12C42E0C42E50E9E52E51E0CB
:101E1000F52E0CE811E028E831E044E851E060E8F4
:101E200071E082E691E006D861E070E08EE691E034
:101E30002FDE62E0C62E61E0D62EF601E084F1844A
:101E400006811781248135814281538160817181AE
:101E50008EE691E0A9DDFAE0CF0ED11C84E3C8162E
:101E600081E0D80651F777247A94FE0131965F011C
:101E700035E3832E31E0932ECE5FDE4F1982188238
:101E8000C250D140C050DF4F19821882C050D1409B
:101E900082E691E02ED8882309F44DC0AE01539517
:101EA000BE016E5F7E4F82E691E089D8882309F4F7
:101EB00042C0CE5FDE4F68817981C250D140C050B0
:101EC000DF4F28813981C050D140E0900001F0906F
:101ED0000101E2E0F1E04081518146175707A8F483
:101EE00084819581840F951F6817790770F442816A
:101EF00053814217530748F486819781840F951FB9
:101F00002817390710F4E084F1843A9681E0E4332D
:101F1000F80709F7F0920101E0920001C050DF4F8D
:101F200048815981C050D1400AE010E02AE030E0F9
:101F30008EE691E039DD80913401882309F49CCF4D
:101F4000F501872D11928A95E9F7C0900001609004
:101F50000101C050DF4FE880C050D140CF5FDE4F5D
:101F6000D880C150D140CE5FDE4F0881C250D140F1
:101F7000CD5FDE4FF880C350D14080EA91E02FD989
:101F8000182F80EA91E037D96F92CF92DF92EF92CB
:101F9000FF920F931F921F931F928F939F928F9286
:101FA000BF92AF92F6D1CC24C394D12C90EEE92EFF
:101FB000FF24FA9402E0950140E251E060E070E015
:101FC0008EE691E040DEE12C28EFF22E2EE431E0A7
:101FD00040E351E060E070E08EE691E034DE109284
:101FE00034010FB6F894DEBF0FBECDBF45CF1092BF
:101FF000A9011092A8011092AB011092AA0185E3E9
:1020000090E090939D0180939C0130E130939E017C
:102010002FEE20939F01A49A9093990180939801A9
:1020200040E240939A014FED40939B01A59A909313
:1020300095018093940180E4809396018FEB8093C7
:102040009701A69A8BE390E0909391018093900181
:1020500041E0409392014EEF40939301D09A9093C8
:102060008D0180938C0142E040938E014DEF4093AF
:102070008F01D19A909389018093880144E0409325
:102080008A014BEF40938B01D29A90938501809304
:10209000840148E04093860147EF40938701D39A3B
:1020A000909381018093800130938201209383017A
:1020B000D49A80E190E090937B0180937A0180E351
:1020C00091E090937D0180937C0190937F018093B8
:1020D0007E010895A1E21A2EAA1BBB1BFD010DC0B3
:1020E000AA1FBB1FEE1FFF1FA217B307E407F507C8
:1020F00020F0A21BB30BE40BF50B661F771F881FA4
:10210000991F1A9469F760957095809590959B0139
:10211000AC01BD01CF0108950DD0A59F900DB49FD6
:10212000900DA49F800D911D112408950790F691A4
:10213000E02D0994A29FB001B39FC001A39F700D31
:10214000811D1124911DB29F700D811D1124911DBF
:102150000895283008F027E03327DA01990F311D60
:1021600087FD916000966105710539F432602E5F3C
:102170003D9330E32A95E1F708959F3F30F0803892
:102180007105610509F03C5F3C5F3D93913008F0BB
:102190008068911DDF93CF931F930F93FF92EF926F
:1021A000192F987F9695E92F96959695E90FFF2719
:1021B000E751FA4F99273327EE24FF24A701E701BF
:1021C00005900894079428F4360FE71EF81E491F5F
:1021D000511D660F771F881F991F0694A1F7059060
:1021E000079428F4E70EF81E491F561FC11D770FEC
:1021F000881F991F661F0694A1F70590079428F47D
:10220000F80E491F561FC71FD11D880F991F661F43
:10221000771F0694A1F70590079420F4490F561FE5
:10222000C71FD81F990F661F771F881F0694A9F72D
:1022300084911095177041F0D695C795579547959D
:10224000F794E7941A95C1F7EFE8F5E068941590D4
:10225000159135916591959105907FE27395E118FF
:10226000F10A430B560BC90BD009C0F7E10CF11E64
:10227000431F561FC91FD01D7EF4703311F48A9579
:10228000E6CFE894015030F0080F0AF40027021757
:1022900008F4202F2395022F7A3328F079E37D93D9
:1022A0002A95E9F710C07D932A9589F606949795AB
:1022B0006795379517951794E118F10A430B560B5C
:1022C000C90BD00998F023957E9173957A3308F065
:1022D00070E37C932013B8F77E9170617D9330F0AA
:1022E000839571E37D9370E32A95E1F71124EF90D4
:1022F000FF900F911F91CF91DF91992787FD9095C6
:102300000895FC010590615070400110D8F7809548
:1023100090958E0F9F1F0895FC01615070400190B1
:102320000110D8F7809590958E0F9F1F08950F93F9
:102330001F93CF93DF93182F092FEB018B8181FD22
:1023400003C08FEF9FEF20C082FF10C04E815F81DE
:102350002C813D81421753077CF4E881F9819F016C
:102360002F5F3F4F39832883108306C0E885F985A6
:10237000812F0995892B29F72E813F812F5F3F4FB0
:102380003F832E83812F902FDF91CF911F910F914B
:1023900008950F931F93CF93DF93CDB7DEB72E979A
:1023A0000FB6F894DEBF0FBECDBF0D891E8986E043
:1023B0008C831A8309838FEF9FE79E838D83AE0101
:1023C000475E5F4F6F89788DCE0101960E9476033C
:1023D000EF81F885E00FF11F10822E960FB6F8946A
:1023E000DEBF0FBECDBFDF91CF911F910F9108953A
:1023F000FA01AA27283051F1203181F1E8946F9336
:102400006E7F6E5F7F4F8F4F9F4FAF4FB1E03ED0DB
:10241000B4E03CD0670F781F891F9A1FA11D680F79
:10242000791F8A1F911DA11D6A0F711D811D911DAC
:10243000A11D20D009F468943F912AE0269F112421
:102440003019305D3193DEF6CF010895462F477085
:10245000405D4193B3E00FD0C9F7F6CF462F4F70E0
:10246000405D4A3318F0495D31FD4052419302D03E
:10247000A9F7EACFB4E0A6959795879577956795E4
:10248000BA95C9F700976105710508959B01AC01E4
:102490000A2E06945795479537952795BA95C9F70B
:1024A000620F731F841F951FA01D0895F894FFCF1E
:1024B00000F800000000300030001F003000000075
:1024C00030003000E0FF600000003000300000F815
:1024D0009000000030003000E007C0000000300035
:1024E0003000FFFF01253032753A25303275202546
:1024F000303364202530336420253034580077771A
:10250000772E706F636B65746D616769632E6E659E
:02251000740055
:00000001FF
